:100000000C945D000C9485000C9485000C94850084
:100010000C9485000C9485000C9485000C9485004C
:100020000C9485000C9485000C9485000C9485003C
:100030000C9485000C9485000C9485000C9485002C
:100040000C9447020C9485000C94B7020C94910216
:100050000C9485000C9485000C9485000C9485000C
:100060000C9485000C94850000000008000201003B
:100070000003040700000000000000000000000072
:10008000250028002B0000000000240027002A0083
:10009000040404040404040402020202020203032E
:1000A0000303030301020408102040800102040836
:1000B00010200102040810203E0411241FBECFEFBF
:1000C000D8E0DEBFCDBF11E0A0E0B1E0EEE7FCE09C
:1000D00002C005900D92A231B107D9F721E0A2E14B
:1000E000B1E001C01D92A83BB207E1F710E0CDE5F9
:1000F000D0E004C02197FE010E943706CC35D1071D
:10010000C9F70E94E9020C943D060C94000090E0AF
:10011000FC01EC55FF4F249180579F4FFC018491C7
:10012000882399F090E0880F991FFC01EA57FF4F50
:10013000A591B491FC01E458FF4F859194918FB73C
:10014000F894EC91E22BEC938FBF089590E0FC01C2
:10015000E859FF4F2491FC01EC55FF4F3491FC010D
:10016000E057FF4FE491EE23C9F0222339F023300A
:1001700001F1A8F4213019F1223029F1F0E0EE0F5D
:10018000FF1FE458FF4FA591B4918FB7F894EC91FD
:10019000611126C030953E233C938FBF08952730D0
:1001A000A9F02830C9F0243049F7809180008F7D74
:1001B00003C0809180008F7780938000DFCF84B56B
:1001C0008F7784BDDBCF84B58F7DFBCF8091B0006E
:1001D0008F778093B000D2CF8091B0008F7DF9CF20
:1001E0003E2BDACFE82FF0E0E859FF4FE491E330FF
:1001F00029F150F4E130C1F0E230D9F060387105F6
:10020000BCF560E00C94A600E73011F1E83041F154
:10021000E430A1F780918000806280938000709329
:100220008B0060938A00089584B5806884BD67BDA3
:10023000089584B5806284BD68BD08958091800072
:10024000806880938000709389006093880008958F
:100250008091B00080688093B0006093B3000895EF
:100260008091B00080628093B0006093B4000895E4
:1002700061E0C8CFAF92BF92CF92DF92EF92FF9230
:100280000F931F93CF93DF936C017B018B01040FBE
:10029000151FEB015E01AE18BF08C017D10759F05A
:1002A0006991D601ED91FC910190F081E02DC6019C
:1002B0000995892B79F7C501DF91CF911F910F9196
:1002C000FF90EF90DF90CF90BF90AF900895FC012A
:1002D000538D448D252F30E0842F90E0821B930BAB
:1002E000541710F0CF96089501970895FC01918D51
:1002F000828D981761F0A28DAE0FBF2FB11D5D9654
:100300008C91928D9F5F9F73928F90E008958FEFF5
:100310009FEF0895FC01918D828D981731F0828DA9
:10032000E80FF11D858D90E008958FEF9FEF089500
:10033000FC01918D228D892F90E0805C9F4F821B64
:1003400091098F739927089582E191E00E949801A5
:1003500021E0892B09F420E0822F089580E090E0CD
:10036000892B29F00E94A40181110C9400000895AA
:10037000FC01A48DA80FB92FB11DA35ABF4F2C911A
:10038000848D90E001968F739927848FA689B78911
:100390002C93A089B1898C91837080648C93938D08
:1003A000848D981306C00288F389E02D80818F7DAB
:1003B00080830895EF92FF920F931F93CF93DF9363
:1003C000EC0181E0888F9B8D8C8D98131AC0E88991
:1003D000F989808185FF15C09FB7F894EE89FF8960
:1003E0006083E889F98980818370806480839FBFFE
:1003F00081E090E0DF91CF911F910F91FF90EF90FE
:100400000895F62E0B8D10E00F5F1F4F0F7311270D
:10041000E02E8C8D8E110CC00FB607FCFACFE88948
:10042000F989808185FFF5CFCE010E94B801F1CF17
:10043000EB8DEC0FFD2FF11DE35AFF4FF0829FB7BC
:10044000F8940B8FEA89FB8980818062CFCFCF93AC
:10045000DF93EC01888D8823B9F0AA89BB89E889EC
:10046000F9898C9185FD03C0808186FD0DC00FB692
:1004700007FCF7CF8C9185FFF2CF808185FFEDCF10
:10048000CE010E94B801E9CFDF91CF9108951F926C
:100490000F920FB60F9211242F933F938F939F9338
:1004A000AF93BF938091B4019091B501A091B60133
:1004B000B091B7013091B30123E0230F2D3758F5E8
:1004C0000196A11DB11D2093B3018093B4019093B7
:1004D000B501A093B601B093B7018091AF0190919F
:1004E000B001A091B101B091B2010196A11DB11D61
:1004F0008093AF019093B001A093B101B093B2018A
:10050000BF91AF919F918F913F912F910F900FBE0F
:100510000F901F90189526E8230F0296A11DB11D7C
:10052000D2CF1F920F920FB60F9211242F933F93A9
:100530004F935F936F937F938F939F93AF93BF93EB
:10054000EF93FF9382E191E00E94B801FF91EF9158
:10055000BF91AF919F918F917F916F915F914F91DB
:100560003F912F910F900FBE0F901F9018951F92E3
:100570000F920FB60F9211242F938F939F93EF93A7
:10058000FF93E0912201F09123018081E091280105
:10059000F091290182FD1BC0908180912B018F5F1A
:1005A0008F7320912C01821741F0E0912B01F0E034
:1005B000EE5EFE4F958F80932B01FF91EF919F91FF
:1005C0008F912F910F900FBE0F901F9018958081E3
:1005D000F4CFCF93DF9300D000D0CDB7DEB77894BF
:1005E00084B5826084BD84B5816084BD85B5826038
:1005F00085BD85B5816085BD80916E0081608093E9
:100600006E00109281008091810082608093810051
:100610008091810081608093810080918000816061
:10062000809380008091B10084608093B1008091BC
:10063000B00081608093B00080917A0084608093E4
:100640007A0080917A00826080937A0080917A00AB
:10065000816080937A0080917A00806880937A002C
:100660001092C10086E00E9487006AE070E086E098
:100670000E94F20085B5887F816085BDE0912201EE
:10068000F091230182E08083E0911E01F0911F012F
:100690001082E0912001F09121018FEC8083109273
:1006A0002A01E0912601F091270186E08083E09104
:1006B0002401F0912501808180618083E0912401F3
:1006C000F0912501808188608083E0912401F09180
:1006D0002501808180688083E0912401F0912501CB
:1006E00080818F7D808310E410937C0080917A005C
:1006F000806480937A0080917A0086FDFCCF6091BF
:100700007800709179008FB7F894C090B401D090C0
:10071000B501E090B601F090B7018FBF072E000C35
:10072000880B990B0E9415052AE038E240EA5BE34A
:100730000E94CA0520E030E040E251E40E94CA0570
:100740009B01AC0160E070E080E791E40E946B04E3
:100750006B017C0120E030E0A9010E94CA054B0139
:100760005C0120E030E0A9010E946C042B013C01F7
:1007700020E030E048E351E4C701B6010E94CA0519
:1007800069837A838B839C832AE037ED43E25CE3C1
:10079000C301B2010E94CA0529813A814B815C8163
:1007A0000E946C046B017C0120E030E0A9010E94F2
:1007B000D80418160CF052C020E030E04FE753E4A4
:1007C000C701B6010E94C50587FF4CC020E030E09C
:1007D000A901C701B6010E94C5051816F4F420E06E
:1007E00030E04FE753E4C701B6010E94D80487FF09
:1007F00014C0A3019201C501B4010E946C042AE057
:1008000037ED43E25CE30E94CA0529813A814B81BE
:100810005C810E946C046B017C01C701B6010E94DF
:10082000DD046B0186E00E94870060E0C114D10402
:1008300029F08FEFC816D104E1F461E086E00E9450
:10084000A60080E090E0892B09F44ECF0E94A4011D
:10085000882309F449CF0E94000046CFC12CD12C37
:100860007601DBCFC12CD12C8FE7E82E83E4F82E64
:10087000D4CFB60186E00E94F200E3CFE2E1F1E0DE
:100880001382128288EE93E0A0E0B0E08483958327
:10089000A683B78384E091E09183808385EC90E028
:1008A0009587848784EC90E09787868780EC90E03A
:1008B000918B808B81EC90E0938B828B82EC90E02B
:1008C000958B848B86EC90E0978B868B118E128EA5
:1008D000138E148E08955058BB27AA270E948304B4
:1008E0000C948B050E947D0538F00E94840520F051
:1008F00039F49F3F19F426F40C947A050EF4E09530
:10090000E7FB0C947405E92F0E949C0558F3BA1775
:10091000620773078407950720F079F4A6F50C9415
:10092000BE050EF4E0950B2EBA2FA02D0B01B901D8
:1009300090010C01CA01A0011124FF27591B99F055
:10094000593F50F4503E68F11A16F040A22F232F61
:10095000342F4427585FF3CF469537952795A795B1
:10096000F0405395C9F77EF41F16BA0B620B730B58
:10097000840BBAF09150A1F0FF0FBB1F661F771FC9
:10098000881FC2F70EC0BA0F621F731F841F48F47E
:10099000879577956795B795F7959E3F08F0B0CF07
:1009A0009395880F08F09927EE0F979587950895EE
:1009B0000E94500508F481E008950E94E4046894C0
:1009C000B1110C94BF0508950E94A40588F09F57AB
:1009D00098F0B92F9927B751B0F0E1F0660F771F63
:1009E000881F991F1AF0BA95C9F714C0B13091F059
:1009F0000E94BE05B1E008950C94BE05672F782FC4
:100A00008827B85F39F0B93FCCF38695779567951D
:100A1000B395D9F73EF490958095709561957F4F89
:100A20008F4F9F4F0895E89409C097FB3EF490952F
:100A30008095709561957F4F8F4F9F4F9923A9F0B7
:100A4000F92F96E9BB279395F69587957795679546
:100A5000B795F111F8CFFAF4BB0F11F460FF1BC08A
:100A60006F5F7F4F8F4F9F4F16C0882311F096E91D
:100A700011C0772321F09EE8872F762F05C06623CB
:100A800071F096E8862F70E060E02AF09A95660F84
:100A9000771F881FDAF7880F9695879597F908953D
:100AA000990F0008550FAA0BE0E8FEEF161617067F
:100AB000E807F907C0F012161306E407F50798F0E7
:100AC000621B730B840B950B39F40A2661F0232B00
:100AD000242B252B21F408950A2609F4A140A6957C
:100AE0008FEF811D811D089597F99F6780E870E061
:100AF00060E008959FEF80EC089500240A94161694
:100B0000170618060906089500240A9412161306FB
:100B1000140605060895092E0394000C11F4882389
:100B200052F0BB0F40F4BF2B11F460FF04C06F5FA5
:100B30007F4F8F4F9F4F089557FD9058440F551F7B
:100B400059F05F3F71F04795880F97FB991F61F04F
:100B50009F3F79F087950895121613061406551FC6
:100B6000F2CF4695F1DF08C0161617061806991F32
:100B7000F1CF86957105610508940895E894BB2727
:100B800066277727CB0197F908950E94500508F44E
:100B90008FEF08950E94DD050C948B050E947D0562
:100BA00038F00E94840520F0952311F00C94740510
:100BB0000C947A0511240C94BF050E949C0570F3D7
:100BC000959FC1F3950F50E0551F629FF001729FF2
:100BD000BB27F00DB11D639FAA27F00DB11DAA1F01
:100BE000649F6627B00DA11D661F829F2227B00D4E
:100BF000A11D621F739FB00DA11D621F839FA00DD9
:100C0000611D221F749F3327A00D611D231F849F28
:100C1000600D211D822F762F6A2F11249F5750407F
:100C20009AF0F1F088234AF0EE0FFF1FBB1F661FFA
:100C3000771F881F91505040A9F79E3F510580F0C3
:100C40000C9474050C94BF055F3FE4F3983ED4F315
:100C5000869577956795B795F795E7959F5FC1F767
:100C6000FE2B880F911D9695879597F90895EE0FA5
:0E0C7000FF1F0590F491E02D0994F894FFCF3A
:100C7E0000000000DA013A016701270298017601AF
:020C8E008A01D9
:00000001FF
